:100000000C942A000C94A1030C94C8030C947A035A
:100010000C9447000C9447000C9447000C94A500E6
:100020000C9447000C9447000C9447000C94410436
:100030000C9418040C946A040C9447000C949304D8
:100040000C9447000C9447000C9447000C94EF0369
:100050000C94470011241FBECFE5D8E0DEBFCDBF12
:1000600010E0A0E6B0E0ECE7F9E002C005900D92E8
:10007000A038B107D9F720E0A0E8B0E001C01D9298
:10008000A43CB207E1F70E9402020C94BC040C9459
:1000900000000F920FB6F8940F921F9211242F9226
:1000A0003F924F925F926F927F928F929F92AF9208
:1000B000BF92CF92DF92EF92FF920F931F932F93F5
:1000C0003F934F935F936F937F938F939F93AF93E0
:1000D000BF93CF93DF93EF93FF93A091B200B091C2
:1000E000B3000DB60D920EB60D920E94C0008111A4
:1000F0000E94BF01A091B200B091B300CD91CDBFDD
:10010000DD91DEBFFF91EF91DF91CF91BF91AF9174
:100110009F918F917F916F915F914F913F912F911F
:100120001F910F91FF90EF90DF90CF90BF90AF9015
:100130009F908F907F906F905F904F903F902F9007
:100140001F900F900FBE0F9008950E9449001895C0
:10015000E0918C00F0918D008081811103C08FEFC0
:100160009FEF09C0E0918C00F0918D000580F68131
:10017000E02D808191819093820080938100089589
:10018000CF92DF92EF92FF920F931F93CF93DF9363
:10019000809180008111E0C0C0918800D0918900D9
:1001A0006E018FEFC81AD80AD0928900C0928800D9
:1001B000C114D104B9F480918C0090918D002091EC
:1001C0008A0030918B0030938D0020938C009093A7
:1001D0008B0080938A00809183008F5F80938300DF
:1001E0000E94A8008091810090918200C816D906D3
:1001F00008F49CC080E069E0E0918C00F0918D00F3
:100200009081911103C02FEF3FEF0FC0E0918C0060
:10021000F0918D000580F681E02D0680F781E02DBC
:1002200022813381C216D30628F4309382002093B2
:1002300081007DC0C285D385248135814681578167
:10024000D90115965C934E93149746815781DA0134
:1002500013963C932E9312979F012E5F3F4F098177
:100260001A810217130711F45A83498313861286E1
:10027000988191509883A489B5891097F9F04685A3
:10028000578500891189EA011D830C830089118932
:10029000E8015B834A831196ED90FC901297AF01C1
:1002A000445F5F4FE416F50621F412961C930E93FB
:1002B0001197158A148A9C9191509C93A6899091CC
:1002C00087009A1710F4A09387006A9FD001112429
:1002D000A257BF4F11960D90BC91A02DB583A4835A
:1002E00014964D915C9115975783468314964D91C2
:1002F0005C911597EA013B832A8315963C932E93D4
:1003000014972689629FD0011124A257BF4FB3874B
:10031000A2879C919F5F9C93E091B200F091B30003
:100320009689921708F068CF81E066CF80E0E0916F
:10033000B200F091B300E689D9E0ED9FF0011124FD
:10034000E257FF4F9081923008F081E09091840055
:10035000992361F081E00AC0809185009091860028
:100360000196909386008093850080E0DF91CF9185
:100370001F910F91FF90EF90DF90CF9008958091A3
:100380008000882321F081E08093840008951092FA
:1003900084008091870069E0482F50E0649F9001BD
:1003A000659F300D1124F901E257FF4F90819111A3
:1003B00002C08150F1CFA181B28112960D90BC9103
:1003C000A02DB283A1832F563F4FA217B30731F45C
:1003D00012962D913C9113973283218399E0949F3B
:1003E000F001959FF00D1124E257FF4F0180F2813B
:1003F000E02D268137813093B3002093B2008093A3
:10040000870008950E94670383B7806483BF83B722
:10041000886083BF83B7887F83BF83B7836083BFD0
:1004200083B78F7E83BF83B7806283BF85B58064C7
:1004300085BD85B5886085BD85B5887F85BD85B559
:10044000836085BD85B58F7E85BD85B5806285BDA0
:100450008FB581608FBD8FB58D7F8FBD8EB5886064
:100460008EBD8EB58F7E8EBD8EB5887F8EBD8EB5CE
:1004700083608EBD8FB580688FBD8FB58F7B8FBD3C
:100480008FB580628FBD8FB58F7E8FBD30E840E81D
:1004900050E02FEF8FEF90E03CBF33BD5BBD4ABD16
:1004A00059BD48BD6FEF73EDE0E361507040E0402F
:1004B000E1F700C000002CBF33BD9BBD8ABD59BD14
:1004C00048BD6FEF73EDE0E361507040E040E1F74D
:1004D00000C000003CBF23BD5BBD4ABD99BD88BDC7
:1004E0006FEF73EDE0E361507040E040E1F700C072
:1004F00000002CBF23BD9BBD8ABD99BD88BD6FEF99
:1005000073EDE0E361507040E040E1F700C00000AF
:10051000C3CF982F97708695869586958130E1F1A7
:1005200038F0823009F46CC0833009F49DC008951E
:10053000613091F0F8F0623009F0C8C04AB321E0B0
:1005400030E0B90102C0660F771F9A95E2F7CB0140
:10055000842B8ABBD89808954AB321E030E0B901D2
:1005600002C0660F771F9A95E2F7CB01809584232E
:100570008ABB08954AB321E030E0B90102C0660F9A
:10058000771F9A95E2F7CB01962F909594239ABB0B
:100590009BB3892B8BBB0895613091F0F8F06230EA
:1005A00009F094C047B321E030E0B90102C0660F02
:1005B000771F9A95E2F7CB01842B87BBC0980895EB
:1005C00047B321E030E0B90102C0660F771F9A956A
:1005D000E2F7CB018095842387BB089547B321E0E0
:1005E00030E0B90102C0660F771F9A95E2F7CB01A0
:1005F000962F9095942397BB98B3892B88BB089529
:10060000613091F0F8F0623009F060C044B321E04D
:1006100030E0B90102C0660F771F9A95E2F7CB016F
:10062000842B84BBA898089544B321E030E0B9013D
:1006300002C0660F771F9A95E2F7CB01809584235D
:1006400084BB089544B321E030E0B90102C0660FD5
:10065000771F9A95E2F7CB01962F9095942394BB40
:1006600095B3892B85BB0895613089F0F0F0623035
:1006700069F541B321E030E0B90102C0660F771F90
:100680009A95E2F7CB01842B81BB9098089541B3F2
:1006900021E030E0B90102C0660F771F9A95E2F7BA
:1006A000CB018095842381BB089541B321E030E0E4
:1006B000B90102C0660F771F9A95E2F7CB01962F1A
:1006C0009095942391BB92B3892B82BB08950F938D
:1006D0001F93CF9300E610E0C0E0F80161918F0115
:1006E0008C2F0E948902CF5FC032B9F7CF911F9142
:1006F0000F9108951F920F920FB60F9211242F930E
:100700003F934F935F936F937F938F939F93AF9399
:10071000BF93EF93FF93E091B400F091B50009957A
:10072000FF91EF91BF91AF919F918F917F916F91C9
:100730005F914F913F912F910F900FBE0F901F909F
:1007400018951F920F920FB60F9211242F933F937B
:100750004F935F936F937F938F939F93AF93BF93C9
:10076000EF93FF93E091B600F091B7000995FF91E8
:10077000EF91BF91AF919F918F917F916F915F9119
:100780004F913F912F910F900FBE0F901F90189592
:100790001F920F920FB60F9211242F933F934F93F6
:1007A0005F936F937F938F939F93AF93BF93EF93D9
:1007B000FF93E091B800F091B9000995FF91EF9196
:1007C000BF91AF919F918F917F916F915F914F9169
:1007D0003F912F910F900FBE0F901F9018951F9271
:1007E0000F920FB60F9211242F933F934F935F9365
:1007F0006F937F938F939F93AF93BF93EF93FF93E9
:10080000E091BA00F091BB00309709F00995FF9193
:10081000EF91BF91AF919F918F917F916F915F9178
:100820004F913F912F910F900FBE0F901F901895F1
:100830001F920F920FB60F9211242F933F934F9355
:100840005F936F937F938F939F93AF93BF93EF9338
:10085000FF93E091BC00F091BD00309709F009953D
:10086000FF91EF91BF91AF919F918F917F916F9188
:100870005F914F913F912F910F900FBE0F901F905E
:1008800018951F920F920FB60F9211242F933F933A
:100890004F935F936F937F938F939F93AF93BF9388
:1008A000EF93FF93E091BE00F091BF00309709F005
:1008B0000995FF91EF91BF91AF919F918F917F919A
:1008C0006F915F914F913F912F910F900FBE0F90BD
:1008D0001F9018951F920F920FB60F9211242F930D
:1008E0003F934F935F936F937F938F939F93AF93B8
:1008F000BF93EF93FF93E091C000F091C100309758
:1009000009F00995FF91EF91BF91AF919F918F9160
:100910007F916F915F914F913F912F910F900FBEFB
:100920000F901F9018951F920F920FB60F921124DF
:100930002F933F934F935F936F937F938F939F93E7
:10094000AF93BF93EF93FF93E091C200F091C30088
:10095000309709F00995FF91EF91BF91AF919F9169
:100960008F917F916F915F914F913F912F910F9058
:0C0970000FBE0F901F901895F894FFCF59
:10097C00010202020202020102020002020202024F
:10098C000202020202020202010201010202000240
:00000001FF
