S011000073696D706C6544494F2E73726563AD
S113000029C000006BC0000090C0000040C0000088
S11300103CC000003AC0000038C0000036C00000F8
S113002034C0000032C0000030C000002EC0000008
S11300302CC000002AC0000028C0000026C0000018
S113004024C0000022C0000020C000001EC0000028
S11300501CC0000011241FBECFE5D8E0DEBFCDBF19
S113006010E0A0E6B0E0ECE7F1E002C005900D92EC
S1130070A036B107D9F720E0A0E6B0E001C01D9298
S1130080A636B207E1F702D077C0BACFFFCF1F92EE
S11300900F920FB60F9211242F933F934F935F93B8
S11300A06F937F938F939F93AF93BF93EF93FF933C
S11300B0E0916000F09161000995FF91EF91BF918B
S11300C0AF919F918F917F916F915F914F913F91EC
S11300D02F910F900FBE0F901F9018951F920F92A3
S11300E00FB60F9211242F933F934F935F936F9307
S11300F07F938F939F93AF93BF93EF93FF93E0917D
S11301006200F09163000995FF91EF91BF91AF9167
S11301109F918F917F916F915F914F913F912F911B
S11301200F900FBE0F901F9018951F920F920FB64D
S11301300F9211242F933F934F935F936F937F9369
S11301408F939F93AF93BF93EF93FF93E0916400DA
S1130150F09165000995FF91EF91BF91AF919F9147
S11301608F917F916F915F914F913F912F910F905C
S10F01700FBE0F901F901895F894FFCF5D
S9030000FC
